:100000000C945D000C9485000C9485000C94850084
:100010000C9485000C9485000C9485000C9485004C
:100020000C9485000C9485000C9485000C947F033F
:100030000C9485000C9485000C9485000C9485002C
:100040000C9435030C9485000C9403030C94DD028E
:100050000C9485000C9485000C9485000C9485000C
:100060000C9485000C94850000000008000201003B
:100070000003040700000000000000000000000072
:10008000250028002B0000000000240027002A0083
:10009000040404040404040402020202020203032E
:1000A0000303030301020408102040800102040836
:1000B0001020010204081020400411241FBECFEFBD
:1000C000D8E0DEBFCDBF11E0A0E0B1E0EEECFEE095
:1000D00002C005900D92A833B107D9F722E0A8E33A
:1000E000B1E001C01D92A135B207E1F710E0CDE506
:1000F000D0E004C02197FE010E945A07CC35D107F9
:10010000C9F70E94BE040C9465070C940000BC0162
:1001100090914E029C3098F580914F0228E830E093
:10012000281B310987FD3395220F331F220F331F00
:10013000621773078CF08091500248E552E0481B2B
:10014000510987FD5395440F551F440F551F9B01BF
:10015000461757070CF49A0122503109220F331F1A
:100160004FB7F894892F90E0FC01EE0FFF1F8E0F20
:100170009F1FFC01E75DFD4F328321834FBF089530
:10018000CF92DF92EF92FF920F931F93CF93DF9363
:100190006C017A018B01C0E0D0E0CE15DF0581F063
:1001A000D8016D918D01D601ED91FC910190F08106
:1001B000E02DC6010995892B11F02196EECF7E0125
:1001C000C701DF91CF911F910F91FF90EF90DF90CA
:1001D000CF900895089580E090E00895FC01538D3C
:1001E000448D252F30E0842F90E0821B930B541711
:1001F00010F0CF96089501970895FC01918D828D9E
:10020000981761F0828DDF01A80FB11D5D968C916A
:10021000928D9F5F9F73928F90E008958FEF9FEF75
:100220000895FC01918D828D981731F0828DE80F31
:10023000F11D858D90E008958FEF9FEF0895FC01EB
:10024000918D228D892F90E0805C9F4F821B9109B8
:100250008F739927089586E491E00E941F0121E0A1
:10026000892B09F420E0822F0895FC01848DDF01A1
:10027000A80FB11DA35ABF4F2C91848D90E0019619
:100280008F739927848FA689B7892C93A089B18908
:100290008C91837080648C93938D848D981306C0A9
:1002A0000288F389E02D80818F7D80830895EF920D
:1002B000FF920F931F93CF93DF93EC0181E0888F20
:1002C0009B8D8C8D981305C0E889F989808185FD07
:1002D00026C0F62E0B8D10E00F5F1F4F0F731127F6
:1002E000E02E8C8DE8120CC00FB607FCFACFE8891F
:1002F000F989808185FFF5CFCE010E943501F1CFCC
:100300008B8DFE01E80FF11DE35AFF4FF0829FB77E
:10031000F8940B8FEA89FB89808180620AC09FB7BD
:10032000F894EE89FF896083E889F9898081837078
:10033000806480839FBF81E090E0DF91CF911F9127
:100340000F91FF90EF900895CF93DF93EC01888D8C
:100350008823C9F0EA89FB89808185FD05C0A889C9
:10036000B9898C9186FD0FC00FB607FCF5CF80814F
:1003700085FFF2CFA889B9898C9185FFEDCFCE0199
:100380000E943501E7CFDF91CF91089580E090E0A2
:10039000892B29F00E942B0181110C9400000895F3
:1003A00090E0FC01E859FF4F2491FC01EC55FF4F10
:1003B0003491FC01E057FF4FE491EE2309F43CC077
:1003C000222339F1233091F038F42130A9F0223082
:1003D00001F584B58F7D12C0273091F02830A1F04F
:1003E0002430B9F4809180008F7D03C0809180001B
:1003F0008F77809380000DC084B58F7784BD09C04E
:100400008091B0008F7703C08091B0008F7D809382
:10041000B000F0E0EE0FFF1FE458FF4FA591B4913C
:100420009FB7F894611104C08C913095382302C0B5
:10043000EC913E2B3C939FBF08953FB7F894809179
:100440003E0190913F01A0914001B091410126B53C
:10045000A89B05C02F3F19F00196A11DB11D3FBFFC
:10046000BA2FA92F982F8827820F911DA11DB11D8A
:10047000BC01CD0142E0660F771F881F991F4A9586
:10048000D1F708958F929F92AF92BF92CF92DF9251
:10049000EF92FF926B017C010E941D024B015C01F7
:1004A000C114D104E104F104F1F00E941D02DC0149
:1004B000CB0188199909AA09BB09883E9340A10577
:1004C000B10570F321E0C21AD108E108F10888EE05
:1004D000880E83E0981EA11CB11CC114D104E10454
:1004E000F10419F7DDCFFF90EF90DF90CF90BF9030
:1004F000AF909F908F9008952FB7F89460913A0134
:1005000070913B0180913C0190913D012FBF089576
:10051000009769F0FC0101900020E9F73197AF01E5
:10052000481B590BBC0186E491E00C94C00080E0AC
:1005300090E008958F929F92AF92BF920F931F9376
:10054000CF93DF93CDB7DEB7A1970FB6F894DEBF98
:100550000FBECDBF19A2423008F44AE08E010F5DF4
:100560001F4F842E912CA12CB12CA50194010E9427
:100570002C07E62FB901CA0101501109EA3014F421
:10058000E05D01C0E95CD801EC93232B242B252BE3
:1005900061F7C8010E948802A1960FB6F894DEBFE9
:1005A0000FBECDBFDF91CF911F910F91BF90AF9044
:1005B0009F908F9008950E9460071F920F920FB630
:1005C0000F9211242F933F934F935F936F937F93D9
:1005D0008F939F93AF93BF93EF93FF9386E491E044
:1005E0000E943501FF91EF91BF91AF919F918F9143
:1005F0007F916F915F914F913F912F910F900FBE1F
:100600000F901F9018951F920F920FB60F92112402
:100610002F938F939F93EF93FF93E0915601F09167
:1006200057018081E0915C01F0915D0182FD12C073
:10063000908180915F018F5F8F732091600182179D
:1006400051F0E0915F01F0E0EA5BFE4F958F8093FF
:100650005F0101C08081FF91EF919F918F912F9158
:100660000F900FBE0F901F9018951F920F920FB60C
:100670000F9211242F933F938F939F93AF93BF9328
:1006800080913A0190913B01A0913C01B0913D01D4
:100690003091390123E0230F2D3720F40196A11D5D
:1006A000B11D05C026E8230F0296A11DB11D2093A0
:1006B000390180933A0190933B01A0933C01B093A0
:1006C0003D0180913E0190913F01A0914001B09188
:1006D00041010196A11DB11D80933E0190933F0100
:1006E000A0934001B0934101BF91AF919F918F9131
:1006F0003F912F910F900FBE0F901F9018951F9252
:100700000F920FB60F9211242F933F934F935F9345
:100710006F937F938F939F93AF93BF93EF93FF93C9
:100720008091380187FF05C01092850010928400E7
:100730001BC020913801022E000C330B80914D021A
:1007400090E02817390784F480913801082E000CB6
:10075000990BFC01EE0FFF1F8E0F9F1FFC01E75D41
:10076000FD4F808186FD15C0809138018F5F809399
:10077000380120913801022E000C330B80914D027C
:1007800090E028173907C4F4809138018C3064F167
:1007900013C080913801082E000C990BFC01EE0F5C
:1007A000FF1F8E0F9F1FFC01E75DFD4F808160E002
:1007B0008F730E94D001D8CF8091840090918500E2
:1007C000049680349C4918F480E49CE905C080912B
:1007D000840090918500049690938900809388000E
:1007E0008FEF809338013BC02091840030918500C9
:1007F00080913801082E000C990BFC01EE0FFF1FB1
:100800008E0F9F1FFC01E75DFD4F81819281820F5A
:10081000931F909389008093880080913801082E5F
:10082000000C990BFC01EE0FFF1F8E0F9F1FFC01A8
:10083000E75DFD4F808186FF12C080913801082E50
:10084000000C990BFC01EE0FFF1F8E0F9F1FFC0188
:10085000E75DFD4F808161E08F730E94D001FF91C1
:10086000EF91BF91AF919F918F917F916F915F9128
:100870004F913F912F910F900FBE0F901F901895A1
:10088000109249011092480188EE93E0A0E0B0E098
:1008900080934A0190934B01A0934C01B0934D017A
:1008A00084E091E0909347018093460185EC90E0CD
:1008B000909353018093520184EC90E09093550102
:1008C0008093540180EC90E09093570180935601FF
:1008D00081EC90E0909359018093580182EC90E074
:1008E00090935B0180935A0186EC90E090935D01B8
:1008F00080935C0110925F0110926001109261017F
:10090000109262011092E9011092EA011092EB013B
:100910001092EC011092ED011092EE011092EF0195
:100920001092F0011092F1011092F2011092F30175
:100930001092F4011092F5011092F6011092F70155
:100940001092F80180914D028C30A0F491E0980F44
:1009500090934D0280934E0290E0FC01EE0FFF1F3A
:100960008E0F9F1FFC01E75DFD4F88EB9BE092839C
:10097000818308958FEF80934E020895789484B513
:10098000826084BD84B5816084BD85B5826085BD8B
:1009900085B5816085BD80916E00816080936E0019
:1009A000109281008091810082608093810080910B
:1009B00081008160809381008091800081608093BC
:1009C00080008091B10084608093B1008091B0007C
:1009D00081608093B00080917A00846080937A0077
:1009E00080917A00826080937A0080917A008160A1
:1009F00080937A0080917A00806880937A001092C8
:100A0000C100109225021092260210922702109225
:100A100028021092E5011092E6011092E70110926F
:100A2000E8010E947C026B017C014B015C0128EB18
:100A3000820E2BE0921EA11CB11C0E947C026C1540
:100A40007D058E059F0528F086169706A806B9062F
:100A5000A0F760ED77E080E090E00E944202E09134
:100A60005601F091570182E08083E0915201F091AC
:100A700053011082E0915401F091550180E180838F
:100A800010925E01E0915A01F0915B0186E0808353
:100A9000E0915801F0915901808180618083E0915B
:100AA0005801F0915901808188608083E09158015C
:100AB000F0915901808180688083E0915801F09124
:100AC000590180818F7D80830E947C026093E501C3
:100AD0007093E6018093E7019093E80182E191E051
:100AE0000E9488020E947C026B017C014B015C0128
:100AF0003AE0830E911CA11CB11C0E947C026C1573
:100B00007D058E059F0528F086169706A806B9066E
:100B1000A0F781E08093F90180914E028C3008F0BB
:100B20006AC0ECEAF0E02491E8E9F0E084918823DF
:100B300099F090E0880F991FFC01EA57FF4FA591AB
:100B4000B491FC01E458FF4F859194918FB7F894CC
:100B5000EC91E22BEC938FBF80914E02E82FF0E0F6
:100B60009F01220F331FE20FF31FE75DFD4F9081BE
:100B7000907C986090839AE790934F0299E89093C5
:100B800050026CE00E944E074CE0849FB00111249B
:100B900040E050E09B01240F351FF901EE0FFF1FCD
:100BA0002E0F3F1FF901E75DFD4F908196FD16C0A6
:100BB0004F5F5F4F4C30510569F781110FC01092A4
:100BC000800082E080938100109285001092840062
:100BD000B19A80916F00826080936F00E0914E0225
:100BE000F0E0CF01880F991FE80FF91FE75DFD4F77
:100BF00080818064808388EE93E00E94870084EF88
:100C0000C82EDD24D394E12CF12C0E947C02672BAA
:100C1000682B692B41F40E947C02623071058105CA
:100C2000910508F4E3C00E947C02809042019090FC
:100C30004301A0904401B0904501681579058A05EB
:100C40009B0540F4609342017093430180934401FB
:100C5000909345018090420190904301A0904401FF
:100C6000B09045019B01AC01281939094A095B097B
:100C700049015A013AEF83169104A104B10408F422
:100C8000B5C06093420170934301809344019093F7
:100C90004501C092F101D092F201E092F301F0928D
:100CA000F4011092F5011092F6011092F7011092E2
:100CB000F8018091E9019091EA01A091EB01B091D6
:100CC000EC018093ED019093EE01A093EF01B093BE
:100CD000F0010E947C026093E9017093EA01809325
:100CE000EB019093EC010E947C026093E50170930C
:100CF000E6018093E7019093E8010E947C024B019A
:100D00005C0184E291E00E9488024AE061E070E0C8
:100D100080E090E00E949A028BE291E00E948802BB
:100D20004AE0C501B4010E949A028DE291E00E945E
:100D300088028091E9019091EA01A091EB01B091C4
:100D4000EC01A5019401281B390B4A0B5B0BCA016E
:100D5000B9014AE00E949A028DE291E00E94880265
:100D60008091E9019091EA01A091EB01B091EC0131
:100D70008090ED019090EE01A090EF01B090F00115
:100D8000BC01CD01681979098A099B094AE00E94D2
:100D90009A028FE291E00E9488020E947C024AE05F
:100DA0000E949A0281E391E00E94880281E291E030
:100DB0000E9488020E947C024B015C012B013C01D5
:100DC00035E0430E511C611C711C0E947C026815A9
:100DD00079058A059B05C8F50E947C026093E901AC
:100DE0007093EA018093EB019093EC01C8E3D4E0A7
:100DF000CE010E94870068EC70E080E090E00E94E5
:100E000042022196CD3347E0D40791F764EF71E0B9
:100E100080E090E00E944202CCE3D7E0CE010E9445
:100E2000870068EC70E080E090E00E944202219729
:100E3000C73354E0D50791F764EF71E080E090E0AC
:100E40000E9442020E94C601E0CE4616570668067E
:100E5000790608F0BACFC0CFA1E21A2EAA1BBB1B9D
:100E6000FD010DC0AA1FBB1FEE1FFF1FA217B30776
:100E7000E407F50720F0A21BB30BE40BF50B661F8C
:100E8000771F881F991F1A9469F760957095809550
:100E900090959B01AC01BD01CF010895991B79E0AC
:100EA00004C0991F961708F0961B881F7A95C9F7FA
:100EB00080950895EE0FFF1F0590F491E02D0994A1
:0E0EC00081E090E0F8940C946507F894FFCF61
:100ECE00000000005701C000EE00A4011F01FD004C
:100EDE001101564D4450565F317C315F564D445092
:100EEE00560D0A00564D4450455F003A323A007C8A
:080EFE00005F564D4450450011
:00000001FF
