:100000000C945D000C9485000C9485000C94850084
:100010000C9485000C9485000C9485000C9485004C
:100020000C9485000C9485000C9485000C94E102DE
:100030000C9485000C9485000C9485000C9485002C
:100040000C9497020C9485000C9465020C943F026A
:100050000C9485000C9485000C9485000C9485000C
:100060000C9485000C94850000000008000201003B
:100070000003040700000000000000000000000072
:10008000250028002B0000000000240027002A0083
:10009000040404040404040402020202020203032E
:1000A0000303030301020408102040800102040836
:1000B0001020010204081020A20311241FBECFEF5C
:1000C000D8E0DEBFCDBF11E0A0E0B1E0E8EAFFE09C
:1000D00002C005900D92A835B107D9F722E0A8E536
:1000E000B1E001C01D92AC35B207E1F710E0CDE5FB
:1000F000D0E004C02197FE010E94C707CC35D1078C
:10010000C9F70E9400040C94D2070C940000BC01B3
:10011000909159029C3098F580915A0228E830E07D
:10012000281B310987FD3395220F331F220F331F00
:10013000621773078CF080915B0248E552E0481B20
:10014000510987FD5395440F551F440F551F9B01BF
:10015000461757070CF49A0122503109220F331F1A
:100160004FB7F894892F90E0FC01EE0FFF1F8E0F20
:100170009F1FFC01EC5CFD4F328321834FBF08952C
:10018000CF92DF92EF92FF920F931F93CF93DF9363
:100190006C017A018B01C0E0D0E0CE15DF0581F063
:1001A000D8016D918D01D601ED91FC910190F08106
:1001B000E02DC6010995892B11F02196EECF7E0125
:1001C000C701DF91CF911F910F91FF90EF90DF90CA
:1001D000CF900895089580E090E00895FC01538D3C
:1001E000448D252F30E0842F90E0821B930B541711
:1001F00010F0CF96089501970895FC01918D828D9E
:10020000981761F0828DDF01A80FB11D5D968C916A
:10021000928D9F5F9F73928F90E008958FEF9FEF75
:100220000895FC01918D828D981731F0828DE80F31
:10023000F11D858D90E008958FEF9FEF0895FC01EB
:10024000918D228D892F90E0805C9F4F821B9109B8
:100250008F739927089587E991E00E941F0121E09B
:10026000892B09F420E0822F0895FC01848DDF01A1
:10027000A80FB11DA35ABF4F2C91848D90E0019619
:100280008F739927848FA689B7892C93A089B18908
:100290008C91837080648C93938D848D981306C0A9
:1002A0000288F389E02D80818F7D80830895EF920D
:1002B000FF920F931F93CF93DF93EC0181E0888F20
:1002C0009B8D8C8D981305C0E889F989808185FD07
:1002D00026C0F62E0B8D10E00F5F1F4F0F731127F6
:1002E000E02E8C8DE8120CC00FB607FCFACFE8891F
:1002F000F989808185FFF5CFCE010E943501F1CFCC
:100300008B8DFE01E80FF11DE35AFF4FF0829FB77E
:10031000F8940B8FEA89FB89808180620AC09FB7BD
:10032000F894EE89FF896083E889F9898081837078
:10033000806480839FBF81E090E0DF91CF911F9127
:100340000F91FF90EF900895CF93DF93EC01888D8C
:100350008823C9F0EA89FB89808185FD05C0A889C9
:10036000B9898C9186FD0FC00FB607FCF5CF80814F
:1003700085FFF2CFA889B9898C9185FFEDCFCE0199
:100380000E943501E7CFDF91CF91089580E090E0A2
:10039000892B29F00E942B0181110C9400000895F3
:1003A00090E0FC01E859FF4F2491FC01EC55FF4F10
:1003B0003491FC01E057FF4FE491EE2309F43CC077
:1003C000222339F1233091F038F42130A9F0223082
:1003D00001F584B58F7D12C0273091F02830A1F04F
:1003E0002430B9F4809180008F7D03C0809180001B
:1003F0008F77809380000DC084B58F7784BD09C04E
:100400008091B0008F7703C08091B0008F7D809382
:10041000B000F0E0EE0FFF1FE458FF4FA591B4913C
:100420009FB7F894611104C08C913095382302C0B5
:10043000EC913E2B3C939FBF0895009769F0FC011F
:1004400001900020E9F73197AF01481B590BBC011F
:1004500087E991E00C94C00080E090E00895CF938C
:10046000DF930E941D02EC0186E191E00E941D02D3
:100470008C0F9D1FDF91CF9108950E94CD071F9291
:100480000F920FB60F9211242F933F934F935F93C8
:100490006F937F938F939F93AF93BF93EF93FF934C
:1004A00087E991E00E943501FF91EF91BF91AF91F3
:1004B0009F918F917F916F915F914F913F912F917C
:1004C0000F900FBE0F901F9018951F920F920FB6AE
:1004D0000F9211242F938F939F93EF93FF93E091AB
:1004E000A701F091A8018081E091AD01F091AE01EA
:1004F00082FD12C090818091B0018F5F8F73209137
:10050000B101821751F0E091B001F0E0E956FE4FE1
:10051000958F8093B00101C08081FF91EF919F91F1
:100520008F912F910F900FBE0F901F9018951F92D3
:100530000F920FB60F9211242F933F938F939F9397
:10054000AF93BF9380915E0190915F01A091600194
:10055000B091610130915D0123E0230F2D3720F42C
:100560000196A11DB11D05C026E8230F0296A11D0D
:10057000B11D20935D0180935E0190935F01A09374
:100580006001B09361018091590190915A01A0914D
:100590005B01B0915C010196A11DB11D80935901D1
:1005A00090935A01A0935B01B0935C01BF91AF910E
:1005B0009F918F913F912F910F900FBE0F901F90A1
:1005C00018951F920F920FB60F9211242F933F93FD
:1005D0004F935F936F937F938F939F93AF93BF934B
:1005E000EF93FF938091580187FF05C0109285001B
:1005F000109284001BC020915801022E000C330B76
:100600008091580290E02817390784F480915801AE
:10061000082E000C990BFC01EE0FFF1F8E0F9F1F81
:10062000FC01EC5CFD4F808186FD15C08091580176
:100630008F5F8093580120915801022E000C330BDC
:100640008091580290E028173907C4F4809158012E
:100650008C3064F113C080915801082E000C990B66
:10066000FC01EE0FFF1F8E0F9F1FFC01EC5CFD4F86
:10067000808160E08F730E94D001D8CF8091840088
:1006800090918500049680349C4918F480E49CE99C
:1006900005C0809184009091850004969093890014
:1006A000809388008FEF809358013BC02091840095
:1006B0003091850080915801082E000C990BFC01A7
:1006C000EE0FFF1F8E0F9F1FFC01EC5CFD4F818121
:1006D0009281820F931F909389008093880080916C
:1006E0005801082E000C990BFC01EE0FFF1F8E0F16
:1006F0009F1FFC01EC5CFD4F808186FF12C0809142
:100700005801082E000C990BFC01EE0FFF1F8E0FF5
:100710009F1FFC01EC5CFD4F808161E08F730E94A4
:10072000D001FF91EF91BF91AF919F918F917F91F8
:100730006F915F914F913F912F910F900FBE0F904E
:100740001F90189510929A011092990188EE93E0EB
:10075000A0E0B0E080939B0190939C01A0939D0149
:10076000B0939E0188E091E0909398018093970167
:1007700085EC90E09093A4018093A30184EC90E039
:100780009093A6018093A50180EC90E09093A8013E
:100790008093A70181EC90E09093AA018093A90136
:1007A00082EC90E09093AC018093AB0186EC90E0FA
:1007B0009093AE018093AD011092B0011092B101FF
:1007C0001092B2011092B301809158028C30A0F4C3
:1007D00091E0980F909358028093590290E0FC01A9
:1007E000EE0FFF1F8E0F9F1FFC01EC5CFD4F88EB8F
:1007F0009BE09283818308958FEF8093590208953F
:10080000CF93DF93CDB7DEB7A1970FB6F894DEBFD5
:100810000FBECDBF789484B5826084BD84B58160FD
:1008200084BD85B5826085BD85B5816085BD8091BB
:100830006E00816080936E00109281008091810033
:10084000826080938100809181008160809381002B
:10085000809180008160809380008091B1008460ED
:100860008093B1008091B00081608093B00080914E
:100870007A00846080937A0080917A00826080930D
:100880007A0080917A00816080937A0080917A006A
:10089000806880937A001092C100E091A701F091E6
:1008A000A80182E08083E091A301F091A40110826D
:1008B000E091A501F091A60180E180831092AF0143
:1008C000E091AB01F091AC0186E08083E091A90159
:1008D000F091AA01808180618083E091A901F0916B
:1008E000AA01808188608083E091A901F091AA012A
:1008F000808180688083E091A901F091AA018081C4
:100900008F7D808389E191E00E942F0285E491E050
:100910000E942F02809159028C3008F06AC0ECEAE4
:10092000F0E02491E8E9F0E08491882399F090E0E8
:10093000880F991FFC01EA57FF4FA591B491FC0164
:10094000E458FF4F859194918FB7F894EC91E22B86
:10095000EC938FBF80915902E82FF0E09F01220FA6
:10096000331FE20FF31FEC5CFD4F9081907C986089
:1009700090839DE790935A0299E890935B026CE014
:100980000E94BB079CE0899FB001112440E050E029
:100990009B01240F351FF901EE0FFF1F2E0F3F1F84
:1009A000F901EC5CFD4F908196FD16C04F5F5F4FE3
:1009B0004C30510569F781110FC01092800082E020
:1009C000809381001092850010928400B19A8091EA
:1009D0006F00826080936F00E0915902F0E0CF01D8
:1009E000880F991FE80FF91FEC5CFD4F8081806430
:1009F000808388EE93E00E9487002FB7F89480915F
:100A00005E0190915F01A0916001B09161012FBFE3
:100A10008053984FAF4FBF4F2FB7F89440915E016E
:100A200050915F0160916001709161012FBF481783
:100A300059076A077B0780F319A280E388A3CE01D8
:100A400080960E941D026EE287E991E00E945701A4
:100A500003E065ED78E789E49FE35AE0252E312C29
:100A6000412C512C015089F120E030E040E251E46A
:100A70000E944E074B015C010E9491069B0140E0E1
:100A800050E019A27E01E1E2EE0EF11C3B016A0189
:100A9000CA01B901A20191010E94FB05605DF70145
:100AA00062937F01211531054105510589F7CF0179
:100AB0000E941D02B301C6010E94C0069B01AC0149
:100AC000C501B4010E941D06CDCF86E191E00E94D0
:100AD0001D0287E291E3A8E4BFE3809300019093B5
:100AE0000101A0930201B093030182E591E00E940D
:100AF0002F0287E991E00E941F01892B49F187E9C4
:100B000091E00E94FD0090918201911104C0803219
:100B100009F06FC014C0913021F4803409F069C02D
:100B20000EC0903261F41092820184E1E4E6F1E0BB
:100B3000A3E8B1E001900D928A95E1F70CC0E92F8E
:100B4000F0E0EE59FE4F80839F5F9093820151C089
:100B5000112309F44EC06091850170918601685E91
:100B60007340072E000C880B990B0E94C20620913F
:100B700000013091010140910201509103010E9456
:100B80004E0720E030EC45E854E40E941E060E9427
:100B90008A06209159022F3FC1F030E0F901EE0F93
:100BA000FF1F2E0F3F1FF901EC5CFD4F21813281A9
:100BB00093E0220F331F9A95E1F744E0369527958D
:100BC0004A95E1F72E5F3F4F02C020E030E0AB01D5
:100BD0004A505109241735072CF04C5E5F4F4217DD
:100BE00053071CF4CB010E94870011E00E94C6014C
:100BF00080CF10E0FBCFA1E21A2EAA1BBB1BFD0188
:100C00000DC0AA1FBB1FEE1FFF1FA217B307E407EB
:100C1000F50720F0A21BB30BE40BF50B661F771F43
:100C2000881F991F1A9469F7609570958095909523
:100C30009B01AC01BD01CF0108955058BB27AA27E5
:100C40000E9435060C9414070E94060738F00E9493
:100C50000D0720F039F49F3F19F426F40C94030794
:100C60000EF4E095E7FB0C94FD06E92F0E942507A2
:100C700058F3BA17620773078407950720F079F4D1
:100C8000A6F50C9447070EF4E0950B2EBA2FA02D75
:100C90000B01B90190010C01CA01A0011124FF2729
:100CA000591B99F0593F50F4503E68F11A16F04024
:100CB000A22F232F342F4427585FF3CF4695379523
:100CC0002795A795F0405395C9F77EF41F16BA0BE8
:100CD000620B730B840BBAF09150A1F0FF0FBB1F96
:100CE000661F771F881FC2F70EC0BA0F621F731FDF
:100CF000841F48F4879577956795B795F7959E3F3C
:100D000008F0B0CF9395880F08F09927EE0F9795CC
:100D1000879508950E9491066894B1110C94480734
:100D200008950E942D0788F09F5798F0B92F9927B2
:100D3000B751B0F0E1F0660F771F881F991F1AF0C6
:100D4000BA95C9F714C0B13091F00E944707B1E0DD
:100D500008950C944707672F782F8827B85F39F0DC
:100D6000B93FCCF3869577956795B395D9F73EF45F
:100D700090958095709561957F4F8F4F9F4F089507
:100D8000E89409C097FB3EF4909580957095619525
:100D90007F4F8F4F9F4F9923A9F0F92F96E9BB27DB
:100DA0009395F695879577956795B795F111F8CF57
:100DB000FAF4BB0F11F460FF1BC06F5F7F4F8F4FC2
:100DC0009F4F16C0882311F096E911C0772321F0B8
:100DD0009EE8872F762F05C0662371F096E8862F50
:100DE00070E060E02AF09A95660F771F881FDAF7A7
:100DF000880F9695879597F9089597F99F6780E8EA
:100E000070E060E008959FEF80EC089500240A945C
:100E10001616170618060906089500240A941216D5
:100E20001306140605060895092E0394000C11F408
:100E3000882352F0BB0F40F4BF2B11F460FF04C0B5
:100E40006F5F7F4F8F4F9F4F089557FD9058440F0E
:100E5000551F59F05F3F71F04795880F97FB991F19
:100E600061F09F3F79F087950895121613061406D6
:100E7000551FF2CF4695F1DF08C016161706180663
:100E8000991FF1CF86957105610508940895E8943E
:100E9000BB2766277727CB0197F908950E94610742
:100EA0000C9414070E94060738F00E940D0720F0EA
:100EB000952311F00C94FD060C94030711240C9457
:100EC00048070E94250770F3959FC1F3950F50E0E6
:100ED000551F629FF001729FBB27F00DB11D639FEC
:100EE000AA27F00DB11DAA1F649F6627B00DA11D92
:100EF000661F829F2227B00DA11D621F739FB00D38
:100F0000A11D621F839FA00D611D221F749F3327A7
:100F1000A00D611D231F849F600D211D822F762F40
:100F20006A2F11249F5750409AF0F1F088234AF01D
:100F3000EE0FFF1FBB1F661F771F881F9150504089
:100F4000A9F79E3F510580F00C94FD060C944807CC
:100F50005F3FE4F3983ED4F3869577956795B79510
:100F6000F795E7959F5FC1F7FE2B880F911D96952A
:100F7000879597F90895991B79E004C0991F9617F2
:100F800008F0961B881F7A95C9F780950895EE0F93
:100F9000FF1F0590F491E02D099481E090E0F89412
:080FA0000C94D207F894FFCF76
:100FA8000000803F000000005701C000EE00A401CF
:100FB8001F01FD0011010D0A004669726D7761720B
:100FC800653A090945736350574D54657374696EE2
:100FD800672E696E6F20322F32382F323032302030
:100FE800323A323700496E697469616C697A696EA0
:080FF8006700446F6E65000004
:107800000C94343C0C94513C0C94513C0C94513CE1
:107810000C94513C0C94513C0C94513C0C94513CB4
:107820000C94513C0C94513C0C94513C0C94513CA4
:107830000C94513C0C94513C0C94513C0C94513C94
:107840000C94513C0C94513C0C94513C0C94513C84
:107850000C94513C0C94513C0C94513C0C94513C74
:107860000C94513C0C94513C11241FBECFEFD8E036
:10787000DEBFCDBF11E0A0E0B1E0ECE9FFE702C060
:1078800005900D92A230B107D9F712E0A2E0B1E065
:1078900001C01D92AD30B107E1F70E942D3D0C945F
:1078A000CC3F0C94003C982F959595959595959582
:1078B000905D8F708A307CF0282F295A8091C0000B
:1078C00085FFFCCF9093C6008091C00085FFFCCF60
:1078D0002093C6000895282F205DF0CF982F809127
:1078E000C00085FFFCCF9093C6000895EF92FF92F1
:1078F0000F931F93EE24FF2487018091C00087FD22
:1079000017C00894E11CF11C011D111D81E4E8164B
:1079100082E4F8068FE0080780E0180770F3E09132
:107920000401F091050109958091C00087FFE9CF1E
:107930008091C6001F910F91FF90EF9008950E94D3
:10794000763C982F8091C00085FFFCCF9093C600B5
:1079500091362CF490330CF09053892F089597555D
:10796000892F08951F930E949F3C182F0E949F3CCF
:107970001295107F810F1F9108951F93182F882350
:1079800021F00E94763C1150E1F71F9108951F935A
:10799000182F0E94763C803249F0809103018F5F5E
:1079A000809303018530C1F01F9108958091C0003C
:1079B00085FFFCCF84E18093C6008091C00085FFE5
:1079C000FCCF1093C6008091C00085FFFCCF80E102
:1079D0008093C6001F910895E0910401F091050184
:1079E00009951F9108950E94763C803241F0809164
:1079F00003018F5F80930301853081F008958091AA
:107A0000C00085FFFCCF84E18093C6008091C00058
:107A100085FFFCCF80E18093C6000895E0910401CA
:107A2000F09105010995089540E951E08823A1F0FE
:107A30002D9A28EE33E0FA013197F1F721503040CA
:107A4000D1F72D9828EE33E0FA013197F1F7215064
:107A50003040D1F7815061F708953F924F925F9285
:107A60006F927F928F929F92AF92BF92CF92DF924E
:107A7000EF92FF920F931F93CF93DF93000080E16B
:107A80008093C4001092C50088E18093C10086E015
:107A90008093C2005098589A259A81E00E94143D24
:107AA00024E1F22E9EE1E92E85E9D82E0FE0C02ECA
:107AB00010E1B12EAA24A394B1E49B2EA6E58A2E50
:107AC000F2E57F2EE0E26E2E79E4572E63E5462E36
:107AD00050E5352E0E94763C8033B1F18133B9F107
:107AE000803409F46FC0813409F476C0823409F41B
:107AF00085C0853409F488C0803531F1823521F1A3
:107B0000813511F1853509F485C0863509F48DC0BC
:107B1000843609F496C0843709F403C1853709F423
:107B200072C1863709F466C0809103018F5F80932C
:107B30000301853079F6E0910401F0910501099582
:107B40000E94763C803351F60E94F33CC3CF0E94E2
:107B5000763C803249F78091C00085FFFCCFF092DF
:107B6000C6008091C00085FFFCCF9092C600809136
:107B7000C00085FFFCCF8092C6008091C00085FFC9
:107B8000FCCF7092C6008091C00085FFFCCF609250
:107B9000C6008091C00085FFFCCF5092C600809146
:107BA000C00085FFFCCF4092C6008091C00085FFD9
:107BB000FCCF3092C6008091C00085FFFCCFB09210
:107BC000C60088CF0E94763C863808F4BDCF0E945C
:107BD000763C0E94F33C7ECF0E94763C803809F4CC
:107BE0009CC0813809F40BC1823809F43CC1883942
:107BF00009F48FC080E00E94C73C6CCF84E10E94F2
:107C0000BD3C0E94F33C66CF85E00E94BD3C0E94D3
:107C1000F33C60CF0E94763C809306010E94763C44
:107C2000809307010E94F33C55CF0E94763C80333D
:107C300009F41DC183E00E94BD3C80E00E94C73C66
:107C400049CF0E94763C809309020E94763C809343
:107C5000080280910C028E7F80930C020E94763C79
:107C6000853409F415C18091080290910902892B8D
:107C700089F000E010E00E94763CF801E85FFE4FDA
:107C800080830F5F1F4F80910802909109020817AF
:107C9000190788F30E94763C803209F045CF809125
:107CA0000C0280FF01C16091060170910701660F0F
:107CB000771F7093070160930601A0910802B091AD
:107CC00009021097C9F0E8E0F1E09B01AD014E0F09
:107CD0005F1FF999FECF32BD21BD819180BDFA9A17
:107CE000F99A2F5F3F4FE417F50799F76A0F7B1F4B
:107CF00070930701609306018091C00085FFFCCF5F
:107D0000F092C6008091C00085FFFCCFB092C60003
:107D1000E1CE83E00E94C73CDDCE82E00E94C73CFA
:107D2000D9CE0E94763C809309020E94763C8093D3
:107D300008028091060190910701880F991F909386
:107D40000701809306010E94763C853409F4A6C0A1
:107D500080910C028E7F80930C020E94763C8032D0
:107D600009F0B8CE8091C00085FFFCCFF092C6002C
:107D7000609108027091090261157105B9F140E046
:107D800050E080910C02A82FA170B82FB27011C0E2
:107D9000BB2309F45CC0E0910601F0910701319624
:107DA000F0930701E09306014F5F5F4F46175707B7
:107DB000E8F4AA2369F3F999FECF209106013091E6
:107DC000070132BD21BDF89A90B58091C00085FFB2
:107DD000FCCF9093C6002F5F3F4F30930701209355
:107DE00006014F5F5F4F4617570718F38091C00099
:107DF00085FDE5CE8091C00085FFF8CFE0CE81E023
:107E00000E94C73C67CE0E94763C803209F08CCE3F
:107E10008091C00085FFFCCFF092C6008091C00029
:107E200085FFFCCFE092C6008091C00085FFFCCFAB
:107E3000D092C6008091C00085FFFCCFC092C600E2
:107E40008091C00085FFFCCFB092C60043CEE09188
:107E50000601F091070194918091C00085FFFCCF4D
:107E60009093C6009CCF80E10E94C73C33CE0E9415
:107E7000763C0E94763C182F0E94763C112309F430
:107E800083C0113009F484C08FE00E94C73C22CE29
:107E900080910C02816080930C02E5CE80910C02EF
:107EA000816080930C0259CF809107018823880F4D
:107EB000880B8A2180930B02809106019091070123
:107EC000880F991F90930701809306018091080203
:107ED00080FF09C080910802909109020196909359
:107EE000090280930802F894F999FECF1127E091D6
:107EF0000601F0910701C8E0D1E08091080290915D
:107F00000902103091F40091570001700130D9F34B
:107F100003E000935700E89500915700017001308D
:107F2000D9F301E100935700E89509901990009169
:107F3000570001700130D9F301E000935700E89534
:107F40001395103498F011270091570001700130FB
:107F5000D9F305E000935700E895009157000170B0
:107F60000130D9F301E100935700E895329602976A
:107F700009F0C7CF103011F00296E5CF112480919F
:107F8000C00085FFB9CEBCCE8EE10E94C73CA2CD19
:0C7F900085E90E94C73C9ECDF894FFCF0D
:027F9C00800063
:040000030000780081
:00000001FF